{
  "contractName": "DemoPresale",
  "abi": [
    {
      "inputs": [
        {
          "internalType": "address",
          "name": "_who",
          "type": "address"
        },
        {
          "internalType": "string",
          "name": "_name",
          "type": "string"
        }
      ],
      "name": "addUser",
      "outputs": [
        {
          "internalType": "bool",
          "name": "",
          "type": "bool"
        }
      ],
      "stateMutability": "nonpayable",
      "type": "function"
    },
    {
      "inputs": [
        {
          "internalType": "address",
          "name": "_who",
          "type": "address"
        }
      ],
      "name": "getUser",
      "outputs": [
        {
          "components": [
            {
              "internalType": "address",
              "name": "who",
              "type": "address"
            },
            {
              "internalType": "string",
              "name": "codeName",
              "type": "string"
            }
          ],
          "internalType": "struct DemoPresale.User",
          "name": "",
          "type": "tuple"
        }
      ],
      "stateMutability": "view",
      "type": "function"
    },
    {
      "inputs": [],
      "name": "getUsersList",
      "outputs": [
        {
          "components": [
            {
              "internalType": "address",
              "name": "who",
              "type": "address"
            },
            {
              "internalType": "string",
              "name": "codeName",
              "type": "string"
            }
          ],
          "internalType": "struct DemoPresale.User[]",
          "name": "",
          "type": "tuple[]"
        }
      ],
      "stateMutability": "view",
      "type": "function"
    },
    {
      "inputs": [
        {
          "internalType": "address",
          "name": "_who",
          "type": "address"
        }
      ],
      "name": "addToWhitelist",
      "outputs": [
        {
          "internalType": "bool",
          "name": "",
          "type": "bool"
        }
      ],
      "stateMutability": "nonpayable",
      "type": "function"
    },
    {
      "inputs": [],
      "name": "getWhitelist",
      "outputs": [
        {
          "internalType": "address[]",
          "name": "",
          "type": "address[]"
        }
      ],
      "stateMutability": "view",
      "type": "function"
    },
    {
      "inputs": [
        {
          "internalType": "address",
          "name": "_who",
          "type": "address"
        }
      ],
      "name": "removeFromWhitelist",
      "outputs": [
        {
          "internalType": "bool",
          "name": "",
          "type": "bool"
        }
      ],
      "stateMutability": "nonpayable",
      "type": "function"
    },
    {
      "inputs": [
        {
          "internalType": "address",
          "name": "_who",
          "type": "address"
        }
      ],
      "name": "checkWhitelist",
      "outputs": [
        {
          "internalType": "bool",
          "name": "",
          "type": "bool"
        }
      ],
      "stateMutability": "view",
      "type": "function"
    },
    {
      "inputs": [
        {
          "internalType": "address",
          "name": "_who",
          "type": "address"
        },
        {
          "internalType": "uint256",
          "name": "_amount",
          "type": "uint256"
        },
        {
          "internalType": "uint256",
          "name": "_price",
          "type": "uint256"
        },
        {
          "internalType": "uint256",
          "name": "_time",
          "type": "uint256"
        },
        {
          "internalType": "uint256",
          "name": "_id",
          "type": "uint256"
        },
        {
          "internalType": "string",
          "name": "_status",
          "type": "string"
        }
      ],
      "name": "addActivity",
      "outputs": [
        {
          "internalType": "bool",
          "name": "",
          "type": "bool"
        }
      ],
      "stateMutability": "nonpayable",
      "type": "function"
    },
    {
      "inputs": [],
      "name": "getActivites",
      "outputs": [
        {
          "components": [
            {
              "internalType": "address",
              "name": "who",
              "type": "address"
            },
            {
              "internalType": "uint256",
              "name": "amount",
              "type": "uint256"
            },
            {
              "internalType": "uint256",
              "name": "priceOfToken",
              "type": "uint256"
            },
            {
              "internalType": "uint256",
              "name": "time",
              "type": "uint256"
            },
            {
              "internalType": "uint256",
              "name": "indexOfPeriod",
              "type": "uint256"
            },
            {
              "internalType": "string",
              "name": "status",
              "type": "string"
            }
          ],
          "internalType": "struct DemoPresale.Activity[]",
          "name": "",
          "type": "tuple[]"
        }
      ],
      "stateMutability": "view",
      "type": "function"
    },
    {
      "inputs": [],
      "name": "getPendingTokens",
      "outputs": [
        {
          "components": [
            {
              "internalType": "address",
              "name": "who",
              "type": "address"
            },
            {
              "internalType": "uint256",
              "name": "amount",
              "type": "uint256"
            }
          ],
          "internalType": "struct DemoPresale.Pending[]",
          "name": "",
          "type": "tuple[]"
        }
      ],
      "stateMutability": "view",
      "type": "function"
    },
    {
      "inputs": [
        {
          "internalType": "address",
          "name": "_who",
          "type": "address"
        }
      ],
      "name": "deletePending",
      "outputs": [
        {
          "internalType": "bool",
          "name": "",
          "type": "bool"
        }
      ],
      "stateMutability": "nonpayable",
      "type": "function"
    },
    {
      "inputs": [
        {
          "internalType": "address",
          "name": "_who",
          "type": "address"
        },
        {
          "internalType": "uint256",
          "name": "_amount",
          "type": "uint256"
        }
      ],
      "name": "updatePending",
      "outputs": [
        {
          "internalType": "bool",
          "name": "",
          "type": "bool"
        }
      ],
      "stateMutability": "nonpayable",
      "type": "function"
    }
  ],
  "bytecode": "0x608060405234801561001057600080fd5b506121e4806100206000396000f3fe608060405234801561001057600080fd5b50600436106100b45760003560e01c80638ab1d681116100715780638ab1d681146101c7578063abfd81af146101f7578063b56b893114610227578063c74e13f314610245578063d01f63f514610263578063e43252d714610281576100b4565b806302045787146100b95780631950c218146100e95780634b68d4311461011957806368bc851c146101495780636f77926b146101795780638a9dd94d146101a9575b600080fd5b6100d360048036038101906100ce91906118ee565b6102b1565b6040516100e09190611de9565b60405180910390f35b61010360048036038101906100fe919061186d565b6104a2565b6040516101109190611de9565b60405180910390f35b610133600480360381019061012e9190611896565b610577565b6040516101409190611de9565b60405180910390f35b610163600480360381019061015e919061192a565b610873565b6040516101709190611de9565b60405180910390f35b610193600480360381019061018e919061186d565b61097f565b6040516101a09190611e04565b60405180910390f35b6101b1610b99565b6040516101be9190611d83565b60405180910390f35b6101e160048036038101906101dc919061186d565b610df6565b6040516101ee9190611de9565b60405180910390f35b610211600480360381019061020c919061186d565b610f32565b60405161021e9190611de9565b60405180910390f35b61022f611080565b60405161023c9190611da5565b60405180910390f35b61024d611228565b60405161025a9190611dc7565b60405180910390f35b61026b611457565b6040516102789190611d61565b60405180910390f35b61029b6004803603810190610296919061186d565b6115d4565b6040516102a89190611de9565b60405180910390f35b600080600380549050905060005b818110156103e65760038181548110610301577f4e487b7100000000000000000000000000000000000000000000000000000000600052603260045260246000fd5b906000526020600020906002020160000160009054906101000a900473ffffffffffffffffffffffffffffffffffffffff1673ffffffffffffffffffffffffffffffffffffffff168573ffffffffffffffffffffffffffffffffffffffff1614156103d35783600382815481106103a1577f4e487b7100000000000000000000000000000000000000000000000000000000600052603260045260246000fd5b906000526020600020906002020160010160008282546103c19190611f87565b9250508190555060019250505061049c565b80806103de90612099565b9150506102bf565b50600060405180604001604052808673ffffffffffffffffffffffffffffffffffffffff168152602001858152509050600381908060018154018082558091505060019003906000526020600020906002020160009091909190915060008201518160000160006101000a81548173ffffffffffffffffffffffffffffffffffffffff021916908373ffffffffffffffffffffffffffffffffffffffff1602179055506020820151816001015550506001925050505b92915050565b600080600090505b60018054905081101561056c57600181815481106104f1577f4e487b7100000000000000000000000000000000000000000000000000000000600052603260045260246000fd5b9060005260206000200160009054906101000a900473ffffffffffffffffffffffffffffffffffffffff1673ffffffffffffffffffffffffffffffffffffffff168373ffffffffffffffffffffffffffffffffffffffff161415610559576001915050610572565b808061056490612099565b9150506104aa565b50600090505b919050565b600080600090505b60008054905081101561076657600081815481106105c6577f4e487b7100000000000000000000000000000000000000000000000000000000600052603260045260246000fd5b906000526020600020906002020160000160009054906101000a900473ffffffffffffffffffffffffffffffffffffffff1673ffffffffffffffffffffffffffffffffffffffff163373ffffffffffffffffffffffffffffffffffffffff1614156107535760405180604001604052808673ffffffffffffffffffffffffffffffffffffffff16815260200185858080601f016020809104026020016040519081016040528093929190818152602001838380828437600081840152601f19601f82011690508083019250505050505050815250600082815481106106d4577f4e487b7100000000000000000000000000000000000000000000000000000000600052603260045260246000fd5b906000526020600020906002020160008201518160000160006101000a81548173ffffffffffffffffffffffffffffffffffffffff021916908373ffffffffffffffffffffffffffffffffffffffff1602179055506020820151816001019080519060200190610745929190611642565b50905050600191505061086c565b808061075e90612099565b91505061057f565b50600060405180604001604052808673ffffffffffffffffffffffffffffffffffffffff16815260200185858080601f016020809104026020016040519081016040528093929190818152602001838380828437600081840152601f19601f82011690508083019250505050505050815250908060018154018082558091505060019003906000526020600020906002020160009091909190915060008201518160000160006101000a81548173ffffffffffffffffffffffffffffffffffffffff021916908373ffffffffffffffffffffffffffffffffffffffff1602179055506020820151816001019080519060200190610864929190611642565b505050600190505b9392505050565b600060026040518060c001604052808973ffffffffffffffffffffffffffffffffffffffff16815260200188815260200187815260200186815260200185815260200184815250908060018154018082558091505060019003906000526020600020906006020160009091909190915060008201518160000160006101000a81548173ffffffffffffffffffffffffffffffffffffffff021916908373ffffffffffffffffffffffffffffffffffffffff1602179055506020820151816001015560408201518160020155606082015181600301556080820151816004015560a082015181600501908051906020019061096e929190611642565b505050600190509695505050505050565b6109876116c8565b61098f6116c8565b60005b600080549050811015610b8f578373ffffffffffffffffffffffffffffffffffffffff16600082815481106109f0577f4e487b7100000000000000000000000000000000000000000000000000000000600052603260045260246000fd5b906000526020600020906002020160000160009054906101000a900473ffffffffffffffffffffffffffffffffffffffff1673ffffffffffffffffffffffffffffffffffffffff161415610b7c5760008181548110610a78577f4e487b7100000000000000000000000000000000000000000000000000000000600052603260045260246000fd5b90600052602060002090600202016040518060400160405290816000820160009054906101000a900473ffffffffffffffffffffffffffffffffffffffff1673ffffffffffffffffffffffffffffffffffffffff1673ffffffffffffffffffffffffffffffffffffffff168152602001600182018054610af790612067565b80601f0160208091040260200160405190810160405280929190818152602001828054610b2390612067565b8015610b705780601f10610b4557610100808354040283529160200191610b70565b820191906000526020600020905b815481529060010190602001808311610b5357829003601f168201915b50505050508152505091505b8080610b8790612099565b915050610992565b5080915050919050565b60606000600280549050905060008167ffffffffffffffff811115610be7577f4e487b7100000000000000000000000000000000000000000000000000000000600052604160045260246000fd5b604051908082528060200260200182016040528015610c2057816020015b610c0d6116f8565b815260200190600190039081610c055790505b50905060005b600280549050811015610ded5760028181548110610c6d577f4e487b7100000000000000000000000000000000000000000000000000000000600052603260045260246000fd5b90600052602060002090600602016040518060c00160405290816000820160009054906101000a900473ffffffffffffffffffffffffffffffffffffffff1673ffffffffffffffffffffffffffffffffffffffff1673ffffffffffffffffffffffffffffffffffffffff16815260200160018201548152602001600282015481526020016003820154815260200160048201548152602001600582018054610d1490612067565b80601f0160208091040260200160405190810160405280929190818152602001828054610d4090612067565b8015610d8d5780601f10610d6257610100808354040283529160200191610d8d565b820191906000526020600020905b815481529060010190602001808311610d7057829003601f168201915b505050505081525050828281518110610dcf577f4e487b7100000000000000000000000000000000000000000000000000000000600052603260045260246000fd5b60200260200101819052508080610de590612099565b915050610c26565b50809250505090565b600080600090505b600180549050811015610f27578273ffffffffffffffffffffffffffffffffffffffff1660018281548110610e5c577f4e487b7100000000000000000000000000000000000000000000000000000000600052603260045260246000fd5b9060005260206000200160009054906101000a900473ffffffffffffffffffffffffffffffffffffffff1673ffffffffffffffffffffffffffffffffffffffff161415610f145760018181548110610edd577f4e487b7100000000000000000000000000000000000000000000000000000000600052603260045260246000fd5b9060005260206000200160006101000a81549073ffffffffffffffffffffffffffffffffffffffff02191690556001915050610f2d565b8080610f1f90612099565b915050610dfe565b50600090505b919050565b600080600380549050905060005b818110156110755760038181548110610f82577f4e487b7100000000000000000000000000000000000000000000000000000000600052603260045260246000fd5b906000526020600020906002020160000160009054906101000a900473ffffffffffffffffffffffffffffffffffffffff1673ffffffffffffffffffffffffffffffffffffffff168473ffffffffffffffffffffffffffffffffffffffff1614156110625760038181548110611021577f4e487b7100000000000000000000000000000000000000000000000000000000600052603260045260246000fd5b9060005260206000209060020201600080820160006101000a81549073ffffffffffffffffffffffffffffffffffffffff0219169055600182016000905550505b808061106d90612099565b915050610f40565b506001915050919050565b60606000600380549050905060008167ffffffffffffffff8111156110ce577f4e487b7100000000000000000000000000000000000000000000000000000000600052604160045260246000fd5b60405190808252806020026020018201604052801561110757816020015b6110f4611744565b8152602001906001900390816110ec5790505b50905060005b8281101561121f576003818154811061114f577f4e487b7100000000000000000000000000000000000000000000000000000000600052603260045260246000fd5b90600052602060002090600202016040518060400160405290816000820160009054906101000a900473ffffffffffffffffffffffffffffffffffffffff1673ffffffffffffffffffffffffffffffffffffffff1673ffffffffffffffffffffffffffffffffffffffff168152602001600182015481525050828281518110611201577f4e487b7100000000000000000000000000000000000000000000000000000000600052603260045260246000fd5b6020026020010181905250808061121790612099565b91505061110d565b50809250505090565b606060008080549050905060008167ffffffffffffffff811115611275577f4e487b7100000000000000000000000000000000000000000000000000000000600052604160045260246000fd5b6040519080825280602002602001820160405280156112ae57816020015b61129b6116c8565b8152602001906001900390816112935790505b50905060005b8281101561144e57600081815481106112f6577f4e487b7100000000000000000000000000000000000000000000000000000000600052603260045260246000fd5b90600052602060002090600202016040518060400160405290816000820160009054906101000a900473ffffffffffffffffffffffffffffffffffffffff1673ffffffffffffffffffffffffffffffffffffffff1673ffffffffffffffffffffffffffffffffffffffff16815260200160018201805461137590612067565b80601f01602080910402602001604051908101604052809291908181526020018280546113a190612067565b80156113ee5780601f106113c3576101008083540402835291602001916113ee565b820191906000526020600020905b8154815290600101906020018083116113d157829003601f168201915b505050505081525050828281518110611430577f4e487b7100000000000000000000000000000000000000000000000000000000600052603260045260246000fd5b6020026020010181905250808061144690612099565b9150506112b4565b50809250505090565b6060600060018054905067ffffffffffffffff8111156114a0577f4e487b7100000000000000000000000000000000000000000000000000000000600052604160045260246000fd5b6040519080825280602002602001820160405280156114ce5781602001602082028036833780820191505090505b50905060005b6001805490508110156115cc576001818154811061151b577f4e487b7100000000000000000000000000000000000000000000000000000000600052603260045260246000fd5b9060005260206000200160009054906101000a900473ffffffffffffffffffffffffffffffffffffffff1682828151811061157f577f4e487b7100000000000000000000000000000000000000000000000000000000600052603260045260246000fd5b602002602001019073ffffffffffffffffffffffffffffffffffffffff16908173ffffffffffffffffffffffffffffffffffffffff168152505080806115c490612099565b9150506114d4565b508091505090565b60006001829080600181540180825580915050600190039060005260206000200160009091909190916101000a81548173ffffffffffffffffffffffffffffffffffffffff021916908373ffffffffffffffffffffffffffffffffffffffff16021790555060019050919050565b82805461164e90612067565b90600052602060002090601f01602090048101928261167057600085556116b7565b82601f1061168957805160ff19168380011785556116b7565b828001600101855582156116b7579182015b828111156116b657825182559160200191906001019061169b565b5b5090506116c49190611774565b5090565b6040518060400160405280600073ffffffffffffffffffffffffffffffffffffffff168152602001606081525090565b6040518060c00160405280600073ffffffffffffffffffffffffffffffffffffffff16815260200160008152602001600081526020016000815260200160008152602001606081525090565b6040518060400160405280600073ffffffffffffffffffffffffffffffffffffffff168152602001600081525090565b5b8082111561178d576000816000905550600101611775565b5090565b60006117a461179f84611e57565b611e26565b9050828152602081018484840111156117bc57600080fd5b6117c7848285612025565b509392505050565b6000813590506117de81612180565b92915050565b60008083601f8401126117f657600080fd5b8235905067ffffffffffffffff81111561180f57600080fd5b60208301915083600182028301111561182757600080fd5b9250929050565b600082601f83011261183f57600080fd5b813561184f848260208601611791565b91505092915050565b60008135905061186781612197565b92915050565b60006020828403121561187f57600080fd5b600061188d848285016117cf565b91505092915050565b6000806000604084860312156118ab57600080fd5b60006118b9868287016117cf565b935050602084013567ffffffffffffffff8111156118d657600080fd5b6118e2868287016117e4565b92509250509250925092565b6000806040838503121561190157600080fd5b600061190f858286016117cf565b925050602061192085828601611858565b9150509250929050565b60008060008060008060c0878903121561194357600080fd5b600061195189828a016117cf565b965050602061196289828a01611858565b955050604061197389828a01611858565b945050606061198489828a01611858565b935050608061199589828a01611858565b92505060a087013567ffffffffffffffff8111156119b257600080fd5b6119be89828a0161182e565b9150509295509295509295565b60006119d78383611a23565b60208301905092915050565b60006119ef8383611c20565b905092915050565b6000611a038383611ca9565b60408301905092915050565b6000611a1b8383611cd8565b905092915050565b611a2c81611fdd565b82525050565b6000611a3d82611ec7565b611a478185611f32565b9350611a5283611e87565b8060005b83811015611a83578151611a6a88826119cb565b9750611a7583611efe565b925050600181019050611a56565b5085935050505092915050565b6000611a9b82611ed2565b611aa58185611f43565b935083602082028501611ab785611e97565b8060005b85811015611af35784840389528151611ad485826119e3565b9450611adf83611f0b565b925060208a01995050600181019050611abb565b50829750879550505050505092915050565b6000611b1082611edd565b611b1a8185611f54565b9350611b2583611ea7565b8060005b83811015611b56578151611b3d88826119f7565b9750611b4883611f18565b925050600181019050611b29565b5085935050505092915050565b6000611b6e82611ee8565b611b788185611f65565b935083602082028501611b8a85611eb7565b8060005b85811015611bc65784840389528151611ba78582611a0f565b9450611bb283611f25565b925060208a01995050600181019050611b8e565b50829750879550505050505092915050565b611be181611fef565b82525050565b6000611bf282611ef3565b611bfc8185611f76565b9350611c0c818560208601612034565b611c158161216f565b840191505092915050565b600060c083016000830151611c386000860182611a23565b506020830151611c4b6020860182611d52565b506040830151611c5e6040860182611d52565b506060830151611c716060860182611d52565b506080830151611c846080860182611d52565b5060a083015184820360a0860152611c9c8282611be7565b9150508091505092915050565b604082016000820151611cbf6000850182611a23565b506020820151611cd26020850182611d52565b50505050565b6000604083016000830151611cf06000860182611a23565b5060208301518482036020860152611d088282611be7565b9150508091505092915050565b6000604083016000830151611d2d6000860182611a23565b5060208301518482036020860152611d458282611be7565b9150508091505092915050565b611d5b8161201b565b82525050565b60006020820190508181036000830152611d7b8184611a32565b905092915050565b60006020820190508181036000830152611d9d8184611a90565b905092915050565b60006020820190508181036000830152611dbf8184611b05565b905092915050565b60006020820190508181036000830152611de18184611b63565b905092915050565b6000602082019050611dfe6000830184611bd8565b92915050565b60006020820190508181036000830152611e1e8184611d15565b905092915050565b6000604051905081810181811067ffffffffffffffff82111715611e4d57611e4c612140565b5b8060405250919050565b600067ffffffffffffffff821115611e7257611e71612140565b5b601f19601f8301169050602081019050919050565b6000819050602082019050919050565b6000819050602082019050919050565b6000819050602082019050919050565b6000819050602082019050919050565b600081519050919050565b600081519050919050565b600081519050919050565b600081519050919050565b600081519050919050565b6000602082019050919050565b6000602082019050919050565b6000602082019050919050565b6000602082019050919050565b600082825260208201905092915050565b600082825260208201905092915050565b600082825260208201905092915050565b600082825260208201905092915050565b600082825260208201905092915050565b6000611f928261201b565b9150611f9d8361201b565b9250827fffffffffffffffffffffffffffffffffffffffffffffffffffffffffffffffff03821115611fd257611fd16120e2565b5b828201905092915050565b6000611fe882611ffb565b9050919050565b60008115159050919050565b600073ffffffffffffffffffffffffffffffffffffffff82169050919050565b6000819050919050565b82818337600083830152505050565b60005b83811015612052578082015181840152602081019050612037565b83811115612061576000848401525b50505050565b6000600282049050600182168061207f57607f821691505b6020821081141561209357612092612111565b5b50919050565b60006120a48261201b565b91507fffffffffffffffffffffffffffffffffffffffffffffffffffffffffffffffff8214156120d7576120d66120e2565b5b600182019050919050565b7f4e487b7100000000000000000000000000000000000000000000000000000000600052601160045260246000fd5b7f4e487b7100000000000000000000000000000000000000000000000000000000600052602260045260246000fd5b7f4e487b7100000000000000000000000000000000000000000000000000000000600052604160045260246000fd5b6000601f19601f8301169050919050565b61218981611fdd565b811461219457600080fd5b50565b6121a08161201b565b81146121ab57600080fd5b5056fea26469706673582212201537ae97b7c61f09386a01d4ed1ef907260296a821ccd2690711e3b62aacaf6f64736f6c63430008000033",
  "immutableReferences": {},
  "source": "// SPDX-License-Identifier: MIT\r\npragma solidity 0.8.0;\r\n\r\ncontract DemoPresale {\r\n\r\n    User[] users;\r\n    address[] whitelist;\r\n    Activity[] activities;\r\n    Pending[] pendingTokens;\r\n\r\n    struct User{\r\n        address who;\r\n        string codeName;\r\n    }\r\n    \r\n    struct Activity{\r\n        address who;\r\n        uint amount;\r\n        uint priceOfToken;\r\n        uint time;\r\n        uint indexOfPeriod;\r\n        string status;\r\n    }\r\n\r\n    struct Pending{\r\n        address who;\r\n        uint amount;\r\n    }\r\n\r\n    function addUser(address _who, string calldata _name) external returns (bool) {\r\n        for(uint x=0;x<users.length;x++){\r\n            if(msg.sender == users[x].who){\r\n                users[x] = User(_who, _name);\r\n                return true;\r\n            }\r\n        }\r\n        users.push(User(_who, _name));\r\n        return true;\r\n    }\r\n\r\n    function getUser(address _who) public view returns(User memory){\r\n        User memory user;\r\n        for(uint x=0;x<users.length;x++){\r\n            if(users[x].who == _who){user = users[x];}\r\n        }\r\n        return user;\r\n    }\r\n\r\n    function getUsersList() public view returns(User[] memory){\r\n        uint len = users.length;\r\n        User[] memory users_ = new User[](len);\r\n        for(uint x=0;x<len;x++){\r\n            users_[x] = users[x];\r\n        }\r\n        return users_;\r\n    }\r\n\r\n    function addToWhitelist(address _who) external returns(bool){\r\n        whitelist.push(_who);\r\n        return true;\r\n    }\r\n\r\n    function getWhitelist() public view returns(address[] memory) {\r\n        address[] memory whitelist_ = new address[](whitelist.length);\r\n        for(uint x=0;x<whitelist.length;x++){\r\n            whitelist_[x] = whitelist[x];\r\n        }\r\n        return whitelist_;\r\n    }\r\n\r\n    function removeFromWhitelist(address _who) external returns(bool){\r\n        for(uint x=0;x<whitelist.length;x++){\r\n            if(whitelist[x] == _who){\r\n                delete whitelist[x];\r\n                return true;\r\n            }\r\n        }\r\n        return false;\r\n    }\r\n\r\n    function checkWhitelist(address _who) external view returns(bool){\r\n        for(uint x=0;x<whitelist.length;x++){\r\n            if(_who == whitelist[x]) return true;\r\n        }\r\n        return false;\r\n    }\r\n\r\n    function addActivity(address _who, uint256 _amount, uint256 _price, uint256 _time, uint256 _id, string memory _status) external returns(bool){\r\n        activities.push(Activity(_who, _amount, _price, _time, _id, _status));\r\n        return true;\r\n    }\r\n\r\n    function getActivites() public view returns(Activity[] memory){\r\n        uint len = activities.length;\r\n        Activity[] memory activities_ = new Activity[](len);\r\n        for(uint x=0;x<activities.length;x++){\r\n            activities_[x] = activities[x];\r\n        }\r\n        return activities_;\r\n    }\r\n\r\n    function getPendingTokens() public view returns (Pending[] memory) {\r\n        uint len = pendingTokens.length;\r\n        Pending[] memory pending_ = new Pending[](len);\r\n        for(uint x=0;x<len;x++){\r\n            pending_[x] = pendingTokens[x];\r\n        }\r\n        return pending_;\r\n    }\r\n\r\n    function deletePending(address _who) external returns(bool){\r\n        uint len = pendingTokens.length;\r\n        for(uint x=0;x<len;x++){\r\n            if(_who == pendingTokens[x].who){\r\n                delete pendingTokens[x];\r\n            }\r\n        }\r\n        return true;\r\n    }\r\n\r\n    function updatePending(address _who, uint _amount) external returns(bool){\r\n        uint len = pendingTokens.length;\r\n        for(uint x=0;x<len;x++){\r\n            if(_who == pendingTokens[x].who){\r\n                pendingTokens[x].amount += _amount;\r\n                return true;\r\n            }\r\n        }\r\n        Pending memory pending_ = Pending(_who, _amount);\r\n        pendingTokens.push(pending_);\r\n        return true;\r\n    }\r\n    \r\n}",
  "sourcePath": "C:\\Users\\kiera\\Desktop\\Keyrxng\\token-presale\\dlt\\contracts\\DemoPresale.sol",
  "compiler": {
    "name": "solc",
    "version": "0.8.0+commit.c7dfd78e.Emscripten.clang"
  },
  "schemaVersion": "3.4.3",
  "updatedAt": "2022-05-28T12:00:00.738Z",
  "devdoc": {
    "kind": "dev",
    "methods": {},
    "version": 1
  },
  "userdoc": {
    "kind": "user",
    "methods": {},
    "version": 1
  }
}