{
  "contractName": "DemoPresaleToken",
  "abi": [
    {
      "inputs": [
        {
          "internalType": "string",
          "name": "_name",
          "type": "string"
        },
        {
          "internalType": "string",
          "name": "_symbol",
          "type": "string"
        },
        {
          "internalType": "address",
          "name": "_presale",
          "type": "address"
        }
      ],
      "stateMutability": "nonpayable",
      "type": "constructor"
    },
    {
      "anonymous": false,
      "inputs": [
        {
          "indexed": true,
          "internalType": "address",
          "name": "owner",
          "type": "address"
        },
        {
          "indexed": true,
          "internalType": "address",
          "name": "spender",
          "type": "address"
        },
        {
          "indexed": false,
          "internalType": "uint256",
          "name": "value",
          "type": "uint256"
        }
      ],
      "name": "Approval",
      "type": "event"
    },
    {
      "anonymous": false,
      "inputs": [
        {
          "indexed": true,
          "internalType": "address",
          "name": "previousOwner",
          "type": "address"
        },
        {
          "indexed": true,
          "internalType": "address",
          "name": "newOwner",
          "type": "address"
        }
      ],
      "name": "OwnershipTransferred",
      "type": "event"
    },
    {
      "anonymous": false,
      "inputs": [
        {
          "indexed": true,
          "internalType": "address",
          "name": "from",
          "type": "address"
        },
        {
          "indexed": true,
          "internalType": "address",
          "name": "to",
          "type": "address"
        },
        {
          "indexed": false,
          "internalType": "uint256",
          "name": "value",
          "type": "uint256"
        }
      ],
      "name": "Transfer",
      "type": "event"
    },
    {
      "stateMutability": "payable",
      "type": "fallback"
    },
    {
      "inputs": [],
      "name": "activePeriod",
      "outputs": [
        {
          "internalType": "bool",
          "name": "",
          "type": "bool"
        }
      ],
      "stateMutability": "view",
      "type": "function"
    },
    {
      "inputs": [
        {
          "internalType": "address",
          "name": "owner",
          "type": "address"
        },
        {
          "internalType": "address",
          "name": "spender",
          "type": "address"
        }
      ],
      "name": "allowance",
      "outputs": [
        {
          "internalType": "uint256",
          "name": "",
          "type": "uint256"
        }
      ],
      "stateMutability": "view",
      "type": "function"
    },
    {
      "inputs": [
        {
          "internalType": "address",
          "name": "spender",
          "type": "address"
        },
        {
          "internalType": "uint256",
          "name": "amount",
          "type": "uint256"
        }
      ],
      "name": "approve",
      "outputs": [
        {
          "internalType": "bool",
          "name": "",
          "type": "bool"
        }
      ],
      "stateMutability": "nonpayable",
      "type": "function"
    },
    {
      "inputs": [
        {
          "internalType": "address",
          "name": "account",
          "type": "address"
        }
      ],
      "name": "balanceOf",
      "outputs": [
        {
          "internalType": "uint256",
          "name": "",
          "type": "uint256"
        }
      ],
      "stateMutability": "view",
      "type": "function"
    },
    {
      "inputs": [
        {
          "internalType": "address",
          "name": "",
          "type": "address"
        }
      ],
      "name": "contributors",
      "outputs": [
        {
          "internalType": "uint256",
          "name": "",
          "type": "uint256"
        }
      ],
      "stateMutability": "view",
      "type": "function"
    },
    {
      "inputs": [],
      "name": "decimals",
      "outputs": [
        {
          "internalType": "uint8",
          "name": "",
          "type": "uint8"
        }
      ],
      "stateMutability": "view",
      "type": "function"
    },
    {
      "inputs": [
        {
          "internalType": "address",
          "name": "spender",
          "type": "address"
        },
        {
          "internalType": "uint256",
          "name": "subtractedValue",
          "type": "uint256"
        }
      ],
      "name": "decreaseAllowance",
      "outputs": [
        {
          "internalType": "bool",
          "name": "",
          "type": "bool"
        }
      ],
      "stateMutability": "nonpayable",
      "type": "function"
    },
    {
      "inputs": [
        {
          "internalType": "address",
          "name": "",
          "type": "address"
        }
      ],
      "name": "funds",
      "outputs": [
        {
          "internalType": "uint256",
          "name": "",
          "type": "uint256"
        }
      ],
      "stateMutability": "view",
      "type": "function"
    },
    {
      "inputs": [],
      "name": "hardcap",
      "outputs": [
        {
          "internalType": "uint256",
          "name": "",
          "type": "uint256"
        }
      ],
      "stateMutability": "view",
      "type": "function"
    },
    {
      "inputs": [],
      "name": "id",
      "outputs": [
        {
          "internalType": "uint256",
          "name": "",
          "type": "uint256"
        }
      ],
      "stateMutability": "view",
      "type": "function"
    },
    {
      "inputs": [
        {
          "internalType": "address",
          "name": "spender",
          "type": "address"
        },
        {
          "internalType": "uint256",
          "name": "addedValue",
          "type": "uint256"
        }
      ],
      "name": "increaseAllowance",
      "outputs": [
        {
          "internalType": "bool",
          "name": "",
          "type": "bool"
        }
      ],
      "stateMutability": "nonpayable",
      "type": "function"
    },
    {
      "inputs": [],
      "name": "name",
      "outputs": [
        {
          "internalType": "string",
          "name": "",
          "type": "string"
        }
      ],
      "stateMutability": "view",
      "type": "function"
    },
    {
      "inputs": [],
      "name": "owner",
      "outputs": [
        {
          "internalType": "address",
          "name": "",
          "type": "address"
        }
      ],
      "stateMutability": "view",
      "type": "function"
    },
    {
      "inputs": [],
      "name": "pendingCount",
      "outputs": [
        {
          "internalType": "uint256",
          "name": "",
          "type": "uint256"
        }
      ],
      "stateMutability": "view",
      "type": "function"
    },
    {
      "inputs": [
        {
          "internalType": "uint256",
          "name": "",
          "type": "uint256"
        }
      ],
      "name": "periods",
      "outputs": [
        {
          "internalType": "uint256",
          "name": "startTime",
          "type": "uint256"
        },
        {
          "internalType": "uint256",
          "name": "endTime",
          "type": "uint256"
        },
        {
          "internalType": "uint256",
          "name": "price",
          "type": "uint256"
        },
        {
          "internalType": "uint256",
          "name": "amount",
          "type": "uint256"
        },
        {
          "internalType": "uint256",
          "name": "remaining",
          "type": "uint256"
        },
        {
          "internalType": "uint256",
          "name": "hardcap",
          "type": "uint256"
        },
        {
          "internalType": "bool",
          "name": "active",
          "type": "bool"
        }
      ],
      "stateMutability": "view",
      "type": "function"
    },
    {
      "inputs": [],
      "name": "price",
      "outputs": [
        {
          "internalType": "uint256",
          "name": "",
          "type": "uint256"
        }
      ],
      "stateMutability": "view",
      "type": "function"
    },
    {
      "inputs": [],
      "name": "renounceOwnership",
      "outputs": [],
      "stateMutability": "nonpayable",
      "type": "function"
    },
    {
      "inputs": [],
      "name": "symbol",
      "outputs": [
        {
          "internalType": "string",
          "name": "",
          "type": "string"
        }
      ],
      "stateMutability": "view",
      "type": "function"
    },
    {
      "inputs": [],
      "name": "totalPurchased",
      "outputs": [
        {
          "internalType": "uint256",
          "name": "",
          "type": "uint256"
        }
      ],
      "stateMutability": "view",
      "type": "function"
    },
    {
      "inputs": [],
      "name": "totalSupply",
      "outputs": [
        {
          "internalType": "uint256",
          "name": "",
          "type": "uint256"
        }
      ],
      "stateMutability": "view",
      "type": "function"
    },
    {
      "inputs": [
        {
          "internalType": "address",
          "name": "to",
          "type": "address"
        },
        {
          "internalType": "uint256",
          "name": "amount",
          "type": "uint256"
        }
      ],
      "name": "transfer",
      "outputs": [
        {
          "internalType": "bool",
          "name": "",
          "type": "bool"
        }
      ],
      "stateMutability": "nonpayable",
      "type": "function"
    },
    {
      "inputs": [
        {
          "internalType": "address",
          "name": "from",
          "type": "address"
        },
        {
          "internalType": "address",
          "name": "to",
          "type": "address"
        },
        {
          "internalType": "uint256",
          "name": "amount",
          "type": "uint256"
        }
      ],
      "name": "transferFrom",
      "outputs": [
        {
          "internalType": "bool",
          "name": "",
          "type": "bool"
        }
      ],
      "stateMutability": "nonpayable",
      "type": "function"
    },
    {
      "inputs": [
        {
          "internalType": "address",
          "name": "newOwner",
          "type": "address"
        }
      ],
      "name": "transferOwnership",
      "outputs": [],
      "stateMutability": "nonpayable",
      "type": "function"
    },
    {
      "inputs": [
        {
          "internalType": "address",
          "name": "",
          "type": "address"
        },
        {
          "internalType": "uint256",
          "name": "",
          "type": "uint256"
        }
      ],
      "name": "userDetails",
      "outputs": [
        {
          "internalType": "bool",
          "name": "",
          "type": "bool"
        }
      ],
      "stateMutability": "view",
      "type": "function"
    },
    {
      "stateMutability": "payable",
      "type": "receive"
    },
    {
      "inputs": [
        {
          "internalType": "uint256",
          "name": "_amount",
          "type": "uint256"
        },
        {
          "internalType": "uint256",
          "name": "_num",
          "type": "uint256"
        }
      ],
      "name": "requestToken",
      "outputs": [],
      "stateMutability": "payable",
      "type": "function"
    },
    {
      "inputs": [
        {
          "internalType": "address",
          "name": "_who",
          "type": "address"
        }
      ],
      "name": "approveToken",
      "outputs": [
        {
          "internalType": "bool",
          "name": "",
          "type": "bool"
        }
      ],
      "stateMutability": "nonpayable",
      "type": "function"
    },
    {
      "inputs": [
        {
          "internalType": "address",
          "name": "_who",
          "type": "address"
        }
      ],
      "name": "unapproveToken",
      "outputs": [
        {
          "internalType": "bool",
          "name": "",
          "type": "bool"
        }
      ],
      "stateMutability": "nonpayable",
      "type": "function"
    },
    {
      "inputs": [
        {
          "internalType": "address",
          "name": "_who",
          "type": "address"
        }
      ],
      "name": "getPurchasedtokens",
      "outputs": [
        {
          "components": [
            {
              "internalType": "address",
              "name": "who",
              "type": "address"
            },
            {
              "internalType": "uint256",
              "name": "amount",
              "type": "uint256"
            },
            {
              "internalType": "uint256",
              "name": "price",
              "type": "uint256"
            },
            {
              "internalType": "uint256",
              "name": "time",
              "type": "uint256"
            }
          ],
          "internalType": "struct DemoPresaleToken.Purchased[]",
          "name": "",
          "type": "tuple[]"
        }
      ],
      "stateMutability": "view",
      "type": "function"
    },
    {
      "inputs": [],
      "name": "getMinTokens",
      "outputs": [
        {
          "internalType": "uint256",
          "name": "",
          "type": "uint256"
        }
      ],
      "stateMutability": "view",
      "type": "function"
    },
    {
      "inputs": [],
      "name": "getPeriods",
      "outputs": [
        {
          "components": [
            {
              "internalType": "uint256",
              "name": "startTime",
              "type": "uint256"
            },
            {
              "internalType": "uint256",
              "name": "endTime",
              "type": "uint256"
            },
            {
              "internalType": "uint256",
              "name": "price",
              "type": "uint256"
            },
            {
              "internalType": "uint256",
              "name": "amount",
              "type": "uint256"
            },
            {
              "internalType": "uint256",
              "name": "remaining",
              "type": "uint256"
            },
            {
              "internalType": "uint256",
              "name": "hardcap",
              "type": "uint256"
            },
            {
              "internalType": "bool",
              "name": "active",
              "type": "bool"
            }
          ],
          "internalType": "struct DemoPresaleToken.Period[]",
          "name": "",
          "type": "tuple[]"
        }
      ],
      "stateMutability": "view",
      "type": "function"
    },
    {
      "inputs": [],
      "name": "getActivePeriod",
      "outputs": [
        {
          "components": [
            {
              "internalType": "uint256",
              "name": "startTime",
              "type": "uint256"
            },
            {
              "internalType": "uint256",
              "name": "endTime",
              "type": "uint256"
            },
            {
              "internalType": "uint256",
              "name": "price",
              "type": "uint256"
            },
            {
              "internalType": "uint256",
              "name": "amount",
              "type": "uint256"
            },
            {
              "internalType": "uint256",
              "name": "remaining",
              "type": "uint256"
            },
            {
              "internalType": "uint256",
              "name": "hardcap",
              "type": "uint256"
            },
            {
              "internalType": "bool",
              "name": "active",
              "type": "bool"
            }
          ],
          "internalType": "struct DemoPresaleToken.Period",
          "name": "",
          "type": "tuple"
        }
      ],
      "stateMutability": "view",
      "type": "function"
    },
    {
      "inputs": [],
      "name": "deactivatePeriod",
      "outputs": [
        {
          "internalType": "bool",
          "name": "",
          "type": "bool"
        }
      ],
      "stateMutability": "nonpayable",
      "type": "function"
    },
    {
      "inputs": [
        {
          "internalType": "address",
          "name": "_who",
          "type": "address"
        },
        {
          "internalType": "string",
          "name": "_name",
          "type": "string"
        }
      ],
      "name": "addUser",
      "outputs": [
        {
          "internalType": "bool",
          "name": "",
          "type": "bool"
        }
      ],
      "stateMutability": "nonpayable",
      "type": "function"
    },
    {
      "inputs": [
        {
          "internalType": "address",
          "name": "_who",
          "type": "address"
        }
      ],
      "name": "addToWhitelist",
      "outputs": [
        {
          "internalType": "bool",
          "name": "",
          "type": "bool"
        }
      ],
      "stateMutability": "nonpayable",
      "type": "function"
    },
    {
      "inputs": [
        {
          "internalType": "address",
          "name": "_who",
          "type": "address"
        }
      ],
      "name": "removeFromWhitelist",
      "outputs": [
        {
          "internalType": "bool",
          "name": "",
          "type": "bool"
        }
      ],
      "stateMutability": "nonpayable",
      "type": "function"
    }
  ],
  "bytecode": "0x6080604052620000146200022760201b60201c565b600a62000022919062000c40565b6009553480156200003257600080fd5b506040516200510f3803806200510f833981810160405281019062000058919062000858565b82828160039080519060200190620000729291906200071f565b5080600490805190602001906200008b9291906200071f565b505050620000ae620000a26200023060201b60201c565b6200023860201b60201c565b80600660006101000a81548173ffffffffffffffffffffffffffffffffffffffff021916908373ffffffffffffffffffffffffffffffffffffffff1602179055506200011630600954655af3107a40006200010a919062000d7d565b620002fe60201b60201c565b60007313371337133713371337133713371337133713379050600073133713371337133713371337133713371337133790506000731337133713371337133713371337133713371337905060007313371337133713371337133713371337133713379050620001a23085600954650bd2cc61d00062000196919062000d7d565b6200047760201b60201c565b620001ca308460095465048c27395000620001be919062000d7d565b6200047760201b60201c565b620001f2308360095465105ef39b2000620001e6919062000d7d565b6200047760201b60201c565b6200021a30826009546515d3ef7980006200020e919062000d7d565b6200047760201b60201c565b5050505050505062000f49565b60006012905090565b600033905090565b6000600560009054906101000a900473ffffffffffffffffffffffffffffffffffffffff16905081600560006101000a81548173ffffffffffffffffffffffffffffffffffffffff021916908373ffffffffffffffffffffffffffffffffffffffff1602179055508173ffffffffffffffffffffffffffffffffffffffff168173ffffffffffffffffffffffffffffffffffffffff167f8be0079c531659141344cd1fd0a4f28419497f9722a3daafe3b4186f6b6457e060405160405180910390a35050565b600073ffffffffffffffffffffffffffffffffffffffff168273ffffffffffffffffffffffffffffffffffffffff16141562000371576040517f08c379a0000000000000000000000000000000000000000000000000000000008152600401620003689062000ad1565b60405180910390fd5b62000385600083836200071560201b60201c565b806002600082825462000399919062000b88565b92505081905550806000808473ffffffffffffffffffffffffffffffffffffffff1673ffffffffffffffffffffffffffffffffffffffff1681526020019081526020016000206000828254620003f0919062000b88565b925050819055508173ffffffffffffffffffffffffffffffffffffffff16600073ffffffffffffffffffffffffffffffffffffffff167fddf252ad1be2c89b69c2b068fc378daa952ba7f163c4a11628f55a4df523b3ef8360405162000457919062000af3565b60405180910390a362000473600083836200071a60201b60201c565b5050565b600073ffffffffffffffffffffffffffffffffffffffff168373ffffffffffffffffffffffffffffffffffffffff161415620004ea576040517f08c379a0000000000000000000000000000000000000000000000000000000008152600401620004e19062000aaf565b60405180910390fd5b600073ffffffffffffffffffffffffffffffffffffffff168273ffffffffffffffffffffffffffffffffffffffff1614156200055d576040517f08c379a0000000000000000000000000000000000000000000000000000000008152600401620005549062000a6b565b60405180910390fd5b620005708383836200071560201b60201c565b60008060008573ffffffffffffffffffffffffffffffffffffffff1673ffffffffffffffffffffffffffffffffffffffff16815260200190815260200160002054905081811015620005f9576040517f08c379a0000000000000000000000000000000000000000000000000000000008152600401620005f09062000a8d565b60405180910390fd5b8181036000808673ffffffffffffffffffffffffffffffffffffffff1673ffffffffffffffffffffffffffffffffffffffff16815260200190815260200160002081905550816000808573ffffffffffffffffffffffffffffffffffffffff1673ffffffffffffffffffffffffffffffffffffffff16815260200190815260200160002060008282546200068e919062000b88565b925050819055508273ffffffffffffffffffffffffffffffffffffffff168473ffffffffffffffffffffffffffffffffffffffff167fddf252ad1be2c89b69c2b068fc378daa952ba7f163c4a11628f55a4df523b3ef84604051620006f4919062000af3565b60405180910390a36200070f8484846200071a60201b60201c565b50505050565b505050565b505050565b8280546200072d9062000e5f565b90600052602060002090601f0160209004810192826200075157600085556200079d565b82601f106200076c57805160ff19168380011785556200079d565b828001600101855582156200079d579182015b828111156200079c5782518255916020019190600101906200077f565b5b509050620007ac9190620007b0565b5090565b5b80821115620007cb576000816000905550600101620007b1565b5090565b6000620007e6620007e08462000b44565b62000b10565b905082815260208101848484011115620007ff57600080fd5b6200080c84828562000e29565b509392505050565b600081519050620008258162000f2f565b92915050565b600082601f8301126200083d57600080fd5b81516200084f848260208601620007cf565b91505092915050565b6000806000606084860312156200086e57600080fd5b600084015167ffffffffffffffff8111156200088957600080fd5b62000897868287016200082b565b935050602084015167ffffffffffffffff811115620008b557600080fd5b620008c3868287016200082b565b9250506040620008d68682870162000814565b9150509250925092565b6000620008ef60238362000b77565b91507f45524332303a207472616e7366657220746f20746865207a65726f206164647260008301527f65737300000000000000000000000000000000000000000000000000000000006020830152604082019050919050565b60006200095760268362000b77565b91507f45524332303a207472616e7366657220616d6f756e742065786365656473206260008301527f616c616e636500000000000000000000000000000000000000000000000000006020830152604082019050919050565b6000620009bf60258362000b77565b91507f45524332303a207472616e736665722066726f6d20746865207a65726f20616460008301527f64726573730000000000000000000000000000000000000000000000000000006020830152604082019050919050565b600062000a27601f8362000b77565b91507f45524332303a206d696e7420746f20746865207a65726f2061646472657373006000830152602082019050919050565b62000a658162000e12565b82525050565b6000602082019050818103600083015262000a8681620008e0565b9050919050565b6000602082019050818103600083015262000aa88162000948565b9050919050565b6000602082019050818103600083015262000aca81620009b0565b9050919050565b6000602082019050818103600083015262000aec8162000a18565b9050919050565b600060208201905062000b0a600083018462000a5a565b92915050565b6000604051905081810181811067ffffffffffffffff8211171562000b3a5762000b3962000ef3565b5b8060405250919050565b600067ffffffffffffffff82111562000b625762000b6162000ef3565b5b601f19601f8301169050602081019050919050565b600082825260208201905092915050565b600062000b958262000e12565b915062000ba28362000e12565b9250827fffffffffffffffffffffffffffffffffffffffffffffffffffffffffffffffff0382111562000bda5762000bd962000e95565b5b828201905092915050565b6000808291508390505b600185111562000c375780860481111562000c0f5762000c0e62000e95565b5b600185161562000c1f5780820291505b808102905062000c2f8562000f22565b945062000bef565b94509492505050565b600062000c4d8262000e12565b915062000c5a8362000e1c565b925062000c897fffffffffffffffffffffffffffffffffffffffffffffffffffffffffffffffff848462000c91565b905092915050565b60008262000ca3576001905062000d76565b8162000cb3576000905062000d76565b816001811462000ccc576002811462000cd75762000d0d565b600191505062000d76565b60ff84111562000cec5762000ceb62000e95565b5b8360020a91508482111562000d065762000d0562000e95565b5b5062000d76565b5060208310610133831016604e8410600b841016171562000d475782820a90508381111562000d415762000d4062000e95565b5b62000d76565b62000d56848484600162000be5565b9250905081840481111562000d705762000d6f62000e95565b5b81810290505b9392505050565b600062000d8a8262000e12565b915062000d978362000e12565b9250817fffffffffffffffffffffffffffffffffffffffffffffffffffffffffffffffff048311821515161562000dd35762000dd262000e95565b5b828202905092915050565b600062000deb8262000df2565b9050919050565b600073ffffffffffffffffffffffffffffffffffffffff82169050919050565b6000819050919050565b600060ff82169050919050565b60005b8381101562000e4957808201518184015260208101905062000e2c565b8381111562000e59576000848401525b50505050565b6000600282049050600182168062000e7857607f821691505b6020821081141562000e8f5762000e8e62000ec4565b5b50919050565b7f4e487b7100000000000000000000000000000000000000000000000000000000600052601160045260246000fd5b7f4e487b7100000000000000000000000000000000000000000000000000000000600052602260045260246000fd5b7f4e487b7100000000000000000000000000000000000000000000000000000000600052604160045260246000fd5b60008160011c9050919050565b62000f3a8162000dde565b811462000f4657600080fd5b50565b6141b68062000f596000396000f3fe6080604052600436106102085760003560e01c806395d89b4111610118578063df7563f2116100a0578063ea4a11041161006f578063ea4a110414610815578063ea70b4af14610858578063eda97ef814610883578063f2fde38b146108c0578063f9486e87146108e95761020f565b8063df7563f214610745578063e2ae93fb14610770578063e43252d7146107ad578063e632c2f3146107ea5761020f565b8063a9059cbb116100e7578063a9059cbb1461064a578063af640d0f14610687578063b071cbe6146106b2578063b2881535146106dd578063dd62ed3e146107085761020f565b806395d89b411461058c578063a035b1fe146105b7578063a457c2d7146105e2578063a5c56a2b1461061f5761020f565b8063313ce5671161019b57806370a082311161016a57806370a0823114610493578063715018a6146104d057806380b2edd8146104e75780638ab1d681146105245780638da5cb5b146105615761020f565b8063313ce567146103c357806339509351146103ee57806345c9a5581461042b5780634b68d431146104565761020f565b80631b2ece00116101d75780631b2ece00146102cf5780631f6d49421461030c578063200036c71461034957806323b872dd146103865761020f565b806306fdde0314610211578063095ea7b31461023c5780630a441f7b1461027957806318160ddd146102a45761020f565b3661020f57005b005b34801561021d57600080fd5b50610226610905565b60405161023391906139ac565b60405180910390f35b34801561024857600080fd5b50610263600480360381019061025e9190612cfe565b610997565b6040516102709190613991565b60405180910390f35b34801561028557600080fd5b5061028e6109ba565b60405161029b9190613991565b60405180910390f35b3480156102b057600080fd5b506102b96109cd565b6040516102c69190613b89565b60405180910390f35b3480156102db57600080fd5b506102f660048036038101906102f19190612cfe565b6109d7565b6040516103039190613991565b60405180910390f35b34801561031857600080fd5b50610333600480360381019061032e9190612bf2565b610a06565b6040516103409190613b89565b60405180910390f35b34801561035557600080fd5b50610370600480360381019061036b9190612bf2565b610a1e565b60405161037d9190613991565b60405180910390f35b34801561039257600080fd5b506103ad60048036038101906103a89190612c57565b610da9565b6040516103ba9190613991565b60405180910390f35b3480156103cf57600080fd5b506103d8610dd8565b6040516103e59190613c13565b60405180910390f35b3480156103fa57600080fd5b5061041560048036038101906104109190612cfe565b610de1565b6040516104229190613991565b60405180910390f35b34801561043757600080fd5b50610440610e18565b60405161044d919061394d565b60405180910390f35b34801561046257600080fd5b5061047d60048036038101906104789190612ca6565b610f87565b60405161048a9190613991565b60405180910390f35b34801561049f57600080fd5b506104ba60048036038101906104b59190612bf2565b611046565b6040516104c79190613b89565b60405180910390f35b3480156104dc57600080fd5b506104e561108e565b005b3480156104f357600080fd5b5061050e60048036038101906105099190612bf2565b611116565b60405161051b9190613991565b60405180910390f35b34801561053057600080fd5b5061054b60048036038101906105469190612bf2565b6115a2565b6040516105589190613991565b60405180910390f35b34801561056d57600080fd5b50610576611722565b60405161058391906136d9565b60405180910390f35b34801561059857600080fd5b506105a161174c565b6040516105ae91906139ac565b60405180910390f35b3480156105c357600080fd5b506105cc6117de565b6040516105d99190613b89565b60405180910390f35b3480156105ee57600080fd5b5061060960048036038101906106049190612cfe565b6117e4565b6040516106169190613991565b60405180910390f35b34801561062b57600080fd5b5061063461185b565b6040516106419190613b6e565b60405180910390f35b34801561065657600080fd5b50610671600480360381019061066c9190612cfe565b6118e5565b60405161067e9190613991565b60405180910390f35b34801561069357600080fd5b5061069c611908565b6040516106a99190613b89565b60405180910390f35b3480156106be57600080fd5b506106c761190e565b6040516106d49190613b89565b60405180910390f35b3480156106e957600080fd5b506106f2611914565b6040516106ff9190613b89565b60405180910390f35b34801561071457600080fd5b5061072f600480360381019061072a9190612c1b565b611941565b60405161073c9190613b89565b60405180910390f35b34801561075157600080fd5b5061075a6119c8565b6040516107679190613991565b60405180910390f35b34801561077c57600080fd5b5061079760048036038101906107929190612bf2565b611aae565b6040516107a49190613b89565b60405180910390f35b3480156107b957600080fd5b506107d460048036038101906107cf9190612bf2565b611ac6565b6040516107e19190613991565b60405180910390f35b3480156107f657600080fd5b506107ff611e0f565b60405161080c9190613b89565b60405180910390f35b34801561082157600080fd5b5061083c60048036038101906108379190612d63565b611e15565b60405161084f9796959493929190613ba4565b60405180910390f35b34801561086457600080fd5b5061086d611e64565b60405161087a9190613b89565b60405180910390f35b34801561088f57600080fd5b506108aa60048036038101906108a59190612bf2565b611e6a565b6040516108b7919061396f565b60405180910390f35b3480156108cc57600080fd5b506108e760048036038101906108e29190612bf2565b6120c8565b005b61090360048036038101906108fe9190612d8c565b6121c0565b005b60606003805461091490614015565b80601f016020809104026020016040519081016040528092919081815260200182805461094090614015565b801561098d5780601f106109625761010080835404028352916020019161098d565b820191906000526020600020905b81548152906001019060200180831161097057829003601f168201915b5050505050905090565b6000806109a26123cd565b90506109af8185856123d5565b600191505092915050565b600d60009054906101000a900460ff1681565b6000600254905090565b60116020528160005260406000206020528060005260406000206000915091509054906101000a900460ff1681565b600e6020528060005260406000206000915090505481565b600080600e60008473ffffffffffffffffffffffffffffffffffffffff1673ffffffffffffffffffffffffffffffffffffffff1681526020019081526020016000205411610aa1576040517f08c379a0000000000000000000000000000000000000000000000000000000008152600401610a9890613aae565b60405180910390fd5b8173ffffffffffffffffffffffffffffffffffffffff166108fc600f60008573ffffffffffffffffffffffffffffffffffffffff1673ffffffffffffffffffffffffffffffffffffffff168152602001908152602001600020549081150290604051600060405180830381858888f19350505050158015610b26573d6000803e3d6000fd5b50600e60008373ffffffffffffffffffffffffffffffffffffffff1673ffffffffffffffffffffffffffffffffffffffff1681526020019081526020016000205460106000600754815260200190815260200160002060040154610b8a9190613cbc565b60106000600754815260200190815260200160002060040181905550600e60008373ffffffffffffffffffffffffffffffffffffffff1673ffffffffffffffffffffffffffffffffffffffff16815260200190815260200160002054600b6000828254610bf79190613f0e565b92505081905550610c07826125a0565b50600660009054906101000a900473ffffffffffffffffffffffffffffffffffffffff1673ffffffffffffffffffffffffffffffffffffffff166368bc851c83600e60008673ffffffffffffffffffffffffffffffffffffffff1673ffffffffffffffffffffffffffffffffffffffff16815260200190815260200160002054600a54426007546040518663ffffffff1660e01b8152600401610cae9594939291906138e7565b602060405180830381600087803b158015610cc857600080fd5b505af1158015610cdc573d6000803e3d6000fd5b505050506040513d601f19601f82011682018060405250810190610d009190612d3a565b506000600f60008473ffffffffffffffffffffffffffffffffffffffff1673ffffffffffffffffffffffffffffffffffffffff168152602001908152602001600020819055600e60008473ffffffffffffffffffffffffffffffffffffffff1673ffffffffffffffffffffffffffffffffffffffff1681526020019081526020016000208190555060086000815480929190610d9b90613feb565b919050555060019050919050565b600080610db46123cd565b9050610dc1858285612656565b610dcc8585856126e2565b60019150509392505050565b60006012905090565b600080610dec6123cd565b9050610e0d818585610dfe8589611941565b610e089190613cbc565b6123d5565b600191505092915050565b6060600060075467ffffffffffffffff811115610e5e577f4e487b7100000000000000000000000000000000000000000000000000000000600052604160045260246000fd5b604051908082528060200260200182016040528015610e9757816020015b610e84612aec565b815260200190600190039081610e7c5790505b50905060005b600754811015610f7f5760106000600183610eb89190613cbc565b81526020019081526020016000206040518060e00160405290816000820154815260200160018201548152602001600282015481526020016003820154815260200160048201548152602001600582015481526020016006820160009054906101000a900460ff161515151581525050828281518110610f61577f4e487b7100000000000000000000000000000000000000000000000000000000600052603260045260246000fd5b60200260200101819052508080610f7790614047565b915050610e9d565b508091505090565b6000600660009054906101000a900473ffffffffffffffffffffffffffffffffffffffff1673ffffffffffffffffffffffffffffffffffffffff16634b68d4318585856040518463ffffffff1660e01b8152600401610fe8939291906137c0565b602060405180830381600087803b15801561100257600080fd5b505af1158015611016573d6000803e3d6000fd5b505050506040513d601f19601f8201168201806040525081019061103a9190612d3a565b50600190509392505050565b60008060008373ffffffffffffffffffffffffffffffffffffffff1673ffffffffffffffffffffffffffffffffffffffff168152602001908152602001600020549050919050565b6110966123cd565b73ffffffffffffffffffffffffffffffffffffffff166110b4611722565b73ffffffffffffffffffffffffffffffffffffffff161461110a576040517f08c379a000000000000000000000000000000000000000000000000000000000815260040161110190613a8e565b60405180910390fd5b6111146000612963565b565b60006111206123cd565b73ffffffffffffffffffffffffffffffffffffffff1661113e611722565b73ffffffffffffffffffffffffffffffffffffffff1614611194576040517f08c379a000000000000000000000000000000000000000000000000000000000815260040161118b90613a8e565b60405180910390fd5b6000600e60008473ffffffffffffffffffffffffffffffffffffffff1673ffffffffffffffffffffffffffffffffffffffff1681526020019081526020016000205411611216576040517f08c379a000000000000000000000000000000000000000000000000000000000815260040161120d90613aee565b60405180910390fd5b6112603083600e60008673ffffffffffffffffffffffffffffffffffffffff1673ffffffffffffffffffffffffffffffffffffffff168152602001908152602001600020546126e2565b611268611722565b73ffffffffffffffffffffffffffffffffffffffff166108fc600f60008573ffffffffffffffffffffffffffffffffffffffff1673ffffffffffffffffffffffffffffffffffffffff168152602001908152602001600020549081150290604051600060405180830381858888f193505050501580156112ec573d6000803e3d6000fd5b506112f6826125a0565b50601260405180608001604052808473ffffffffffffffffffffffffffffffffffffffff168152602001600e60008673ffffffffffffffffffffffffffffffffffffffff1673ffffffffffffffffffffffffffffffffffffffff168152602001908152602001600020548152602001600a54815260200142815250908060018154018082558091505060019003906000526020600020906004020160009091909190915060008201518160000160006101000a81548173ffffffffffffffffffffffffffffffffffffffff021916908373ffffffffffffffffffffffffffffffffffffffff1602179055506020820151816001015560408201518160020155606082015181600301555050600660009054906101000a900473ffffffffffffffffffffffffffffffffffffffff1673ffffffffffffffffffffffffffffffffffffffff166368bc851c83600e60008673ffffffffffffffffffffffffffffffffffffffff1673ffffffffffffffffffffffffffffffffffffffff16815260200190815260200160002054600a54426007546040518663ffffffff1660e01b81526004016114a7959493929190613881565b602060405180830381600087803b1580156114c157600080fd5b505af11580156114d5573d6000803e3d6000fd5b505050506040513d601f19601f820116820180604052508101906114f99190612d3a565b506000600f60008473ffffffffffffffffffffffffffffffffffffffff1673ffffffffffffffffffffffffffffffffffffffff168152602001908152602001600020819055600e60008473ffffffffffffffffffffffffffffffffffffffff1673ffffffffffffffffffffffffffffffffffffffff168152602001908152602001600020819055506008600081548092919061159490613feb565b919050555060019050919050565b6000600660009054906101000a900473ffffffffffffffffffffffffffffffffffffffff1673ffffffffffffffffffffffffffffffffffffffff16638ab1d681836040518263ffffffff1660e01b81526004016115ff91906136d9565b602060405180830381600087803b15801561161957600080fd5b505af115801561162d573d6000803e3d6000fd5b505050506040513d601f19601f820116820180604052508101906116519190612d3a565b1561171857600660009054906101000a900473ffffffffffffffffffffffffffffffffffffffff1673ffffffffffffffffffffffffffffffffffffffff166368bc851c83600080426007546040518663ffffffff1660e01b81526004016116bc95949392919061375a565b602060405180830381600087803b1580156116d657600080fd5b505af11580156116ea573d6000803e3d6000fd5b505050506040513d601f19601f8201168201806040525081019061170e9190612d3a565b506001905061171d565b600090505b919050565b6000600560009054906101000a900473ffffffffffffffffffffffffffffffffffffffff16905090565b60606004805461175b90614015565b80601f016020809104026020016040519081016040528092919081815260200182805461178790614015565b80156117d45780601f106117a9576101008083540402835291602001916117d4565b820191906000526020600020905b8154815290600101906020018083116117b757829003601f168201915b5050505050905090565b600a5481565b6000806117ef6123cd565b905060006117fd8286611941565b905083811015611842576040517f08c379a000000000000000000000000000000000000000000000000000000000815260040161183990613b4e565b60405180910390fd5b61184f82868684036123d5565b60019250505092915050565b611863612aec565b60006010600060075481526020019081526020016000206040518060e00160405290816000820154815260200160018201548152602001600282015481526020016003820154815260200160048201548152602001600582015481526020016006820160009054906101000a900460ff16151515158152505090508091505090565b6000806118f06123cd565b90506118fd8185856126e2565b600191505092915050565b60075481565b600c5481565b6000600a54600954111561193957600a546009546119329190613d12565b905061193e565b600190505b90565b6000600160008473ffffffffffffffffffffffffffffffffffffffff1673ffffffffffffffffffffffffffffffffffffffff16815260200190815260200160002060008373ffffffffffffffffffffffffffffffffffffffff1673ffffffffffffffffffffffffffffffffffffffff16815260200190815260200160002054905092915050565b60006119d26123cd565b73ffffffffffffffffffffffffffffffffffffffff166119f0611722565b73ffffffffffffffffffffffffffffffffffffffff1614611a46576040517f08c379a0000000000000000000000000000000000000000000000000000000008152600401611a3d90613a8e565b60405180910390fd5b60006008541115611a5a5760009050611aab565b600060106000600754815260200190815260200160002060060160006101000a81548160ff0219169083151502179055506000600d60006101000a81548160ff021916908315150217905550600190505b90565b600f6020528060005260406000206000915090505481565b6000611ad06123cd565b73ffffffffffffffffffffffffffffffffffffffff16611aee611722565b73ffffffffffffffffffffffffffffffffffffffff1614611b44576040517f08c379a0000000000000000000000000000000000000000000000000000000008152600401611b3b90613a8e565b60405180910390fd5b600660009054906101000a900473ffffffffffffffffffffffffffffffffffffffff1673ffffffffffffffffffffffffffffffffffffffff16631950c218836040518263ffffffff1660e01b8152600401611b9f91906136d9565b60206040518083038186803b158015611bb757600080fd5b505afa158015611bcb573d6000803e3d6000fd5b505050506040513d601f19601f82011682018060405250810190611bef9190612d3a565b15611c2f576040517f08c379a0000000000000000000000000000000000000000000000000000000008152600401611c2690613ace565b60405180910390fd5b600073ffffffffffffffffffffffffffffffffffffffff168273ffffffffffffffffffffffffffffffffffffffff161415611c9f576040517f08c379a0000000000000000000000000000000000000000000000000000000008152600401611c9690613a2e565b60405180910390fd5b600660009054906101000a900473ffffffffffffffffffffffffffffffffffffffff1673ffffffffffffffffffffffffffffffffffffffff1663e43252d7836040518263ffffffff1660e01b8152600401611cfa91906136d9565b602060405180830381600087803b158015611d1457600080fd5b505af1158015611d28573d6000803e3d6000fd5b505050506040513d601f19601f82011682018060405250810190611d4c9190612d3a565b50600660009054906101000a900473ffffffffffffffffffffffffffffffffffffffff1673ffffffffffffffffffffffffffffffffffffffff166368bc851c83600080426007546040518663ffffffff1660e01b8152600401611db39594939291906136f4565b602060405180830381600087803b158015611dcd57600080fd5b505af1158015611de1573d6000803e3d6000fd5b505050506040513d601f19601f82011682018060405250810190611e059190612d3a565b5060019050919050565b600b5481565b60106020528060005260406000206000915090508060000154908060010154908060020154908060030154908060040154908060050154908060060160009054906101000a900460ff16905087565b60085481565b60606000601280549050905060008167ffffffffffffffff811115611eb8577f4e487b7100000000000000000000000000000000000000000000000000000000600052604160045260246000fd5b604051908082528060200260200182016040528015611ef157816020015b611ede612b2b565b815260200190600190039081611ed65790505b50905060005b828110156120bd578473ffffffffffffffffffffffffffffffffffffffff1660128281548110611f50577f4e487b7100000000000000000000000000000000000000000000000000000000600052603260045260246000fd5b906000526020600020906004020160000160009054906101000a900473ffffffffffffffffffffffffffffffffffffffff1673ffffffffffffffffffffffffffffffffffffffff1614156120aa5760128181548110611fd8577f4e487b7100000000000000000000000000000000000000000000000000000000600052603260045260246000fd5b90600052602060002090600402016040518060800160405290816000820160009054906101000a900473ffffffffffffffffffffffffffffffffffffffff1673ffffffffffffffffffffffffffffffffffffffff1673ffffffffffffffffffffffffffffffffffffffff168152602001600182015481526020016002820154815260200160038201548152505082828151811061209e577f4e487b7100000000000000000000000000000000000000000000000000000000600052603260045260246000fd5b60200260200101819052505b80806120b590614047565b915050611ef7565b508092505050919050565b6120d06123cd565b73ffffffffffffffffffffffffffffffffffffffff166120ee611722565b73ffffffffffffffffffffffffffffffffffffffff1614612144576040517f08c379a000000000000000000000000000000000000000000000000000000000815260040161213b90613a8e565b60405180910390fd5b600073ffffffffffffffffffffffffffffffffffffffff168173ffffffffffffffffffffffffffffffffffffffff1614156121b4576040517f08c379a00000000000000000000000000000000000000000000000000000000081526004016121ab906139ee565b60405180910390fd5b6121bd81612963565b50565b80600a6121cd9190613d96565b600954836121db9190613eb4565b6121e59190613d12565b915081600b60008282546121f99190613cbc565b9250508190555081600e60003373ffffffffffffffffffffffffffffffffffffffff1673ffffffffffffffffffffffffffffffffffffffff168152602001908152602001600020600082825461224f9190613cbc565b9250508190555034600f60003373ffffffffffffffffffffffffffffffffffffffff1673ffffffffffffffffffffffffffffffffffffffff16815260200190815260200160002060008282546122a59190613cbc565b9250508190555081601060006007548152602001908152602001600020600401546122d09190613f0e565b601060006007548152602001908152602001600020600401819055506122f63383612a29565b50600660009054906101000a900473ffffffffffffffffffffffffffffffffffffffff1673ffffffffffffffffffffffffffffffffffffffff166368bc851c3384600a54426007546040518663ffffffff1660e01b815260040161235e95949392919061381b565b602060405180830381600087803b15801561237857600080fd5b505af115801561238c573d6000803e3d6000fd5b505050506040513d601f19601f820116820180604052508101906123b09190612d3a565b50600860008154809291906123c490614047565b91905055505050565b600033905090565b600073ffffffffffffffffffffffffffffffffffffffff168373ffffffffffffffffffffffffffffffffffffffff161415612445576040517f08c379a000000000000000000000000000000000000000000000000000000000815260040161243c90613b2e565b60405180910390fd5b600073ffffffffffffffffffffffffffffffffffffffff168273ffffffffffffffffffffffffffffffffffffffff1614156124b5576040517f08c379a00000000000000000000000000000000000000000000000000000000081526004016124ac90613a0e565b60405180910390fd5b80600160008573ffffffffffffffffffffffffffffffffffffffff1673ffffffffffffffffffffffffffffffffffffffff16815260200190815260200160002060008473ffffffffffffffffffffffffffffffffffffffff1673ffffffffffffffffffffffffffffffffffffffff168152602001908152602001600020819055508173ffffffffffffffffffffffffffffffffffffffff168373ffffffffffffffffffffffffffffffffffffffff167f8c5be1e5ebec7d5bd14f71427d1e84f3dd0314c0f7b2291e5b200ac8c7c3b925836040516125939190613b89565b60405180910390a3505050565b6000600660009054906101000a900473ffffffffffffffffffffffffffffffffffffffff1673ffffffffffffffffffffffffffffffffffffffff1663abfd81af836040518263ffffffff1660e01b81526004016125fd91906136d9565b602060405180830381600087803b15801561261757600080fd5b505af115801561262b573d6000803e3d6000fd5b505050506040513d601f19601f8201168201806040525081019061264f9190612d3a565b9050919050565b60006126628484611941565b90507fffffffffffffffffffffffffffffffffffffffffffffffffffffffffffffffff81146126dc57818110156126ce576040517f08c379a00000000000000000000000000000000000000000000000000000000081526004016126c590613a4e565b60405180910390fd5b6126db84848484036123d5565b5b50505050565b600073ffffffffffffffffffffffffffffffffffffffff168373ffffffffffffffffffffffffffffffffffffffff161415612752576040517f08c379a000000000000000000000000000000000000000000000000000000000815260040161274990613b0e565b60405180910390fd5b600073ffffffffffffffffffffffffffffffffffffffff168273ffffffffffffffffffffffffffffffffffffffff1614156127c2576040517f08c379a00000000000000000000000000000000000000000000000000000000081526004016127b9906139ce565b60405180910390fd5b6127cd838383612ae2565b60008060008573ffffffffffffffffffffffffffffffffffffffff1673ffffffffffffffffffffffffffffffffffffffff16815260200190815260200160002054905081811015612853576040517f08c379a000000000000000000000000000000000000000000000000000000000815260040161284a90613a6e565b60405180910390fd5b8181036000808673ffffffffffffffffffffffffffffffffffffffff1673ffffffffffffffffffffffffffffffffffffffff16815260200190815260200160002081905550816000808573ffffffffffffffffffffffffffffffffffffffff1673ffffffffffffffffffffffffffffffffffffffff16815260200190815260200160002060008282546128e69190613cbc565b925050819055508273ffffffffffffffffffffffffffffffffffffffff168473ffffffffffffffffffffffffffffffffffffffff167fddf252ad1be2c89b69c2b068fc378daa952ba7f163c4a11628f55a4df523b3ef8460405161294a9190613b89565b60405180910390a361295d848484612ae7565b50505050565b6000600560009054906101000a900473ffffffffffffffffffffffffffffffffffffffff16905081600560006101000a81548173ffffffffffffffffffffffffffffffffffffffff021916908373ffffffffffffffffffffffffffffffffffffffff1602179055508173ffffffffffffffffffffffffffffffffffffffff168173ffffffffffffffffffffffffffffffffffffffff167f8be0079c531659141344cd1fd0a4f28419497f9722a3daafe3b4186f6b6457e060405160405180910390a35050565b6000600660009054906101000a900473ffffffffffffffffffffffffffffffffffffffff1673ffffffffffffffffffffffffffffffffffffffff16630204578784846040518363ffffffff1660e01b8152600401612a889291906137f2565b602060405180830381600087803b158015612aa257600080fd5b505af1158015612ab6573d6000803e3d6000fd5b505050506040513d601f19601f82011682018060405250810190612ada9190612d3a565b905092915050565b505050565b505050565b6040518060e001604052806000815260200160008152602001600081526020016000815260200160008152602001600081526020016000151581525090565b6040518060800160405280600073ffffffffffffffffffffffffffffffffffffffff1681526020016000815260200160008152602001600081525090565b600081359050612b788161413b565b92915050565b600081519050612b8d81614152565b92915050565b60008083601f840112612ba557600080fd5b8235905067ffffffffffffffff811115612bbe57600080fd5b602083019150836001820283011115612bd657600080fd5b9250929050565b600081359050612bec81614169565b92915050565b600060208284031215612c0457600080fd5b6000612c1284828501612b69565b91505092915050565b60008060408385031215612c2e57600080fd5b6000612c3c85828601612b69565b9250506020612c4d85828601612b69565b9150509250929050565b600080600060608486031215612c6c57600080fd5b6000612c7a86828701612b69565b9350506020612c8b86828701612b69565b9250506040612c9c86828701612bdd565b9150509250925092565b600080600060408486031215612cbb57600080fd5b6000612cc986828701612b69565b935050602084013567ffffffffffffffff811115612ce657600080fd5b612cf286828701612b93565b92509250509250925092565b60008060408385031215612d1157600080fd5b6000612d1f85828601612b69565b9250506020612d3085828601612bdd565b9150509250929050565b600060208284031215612d4c57600080fd5b6000612d5a84828501612b7e565b91505092915050565b600060208284031215612d7557600080fd5b6000612d8384828501612bdd565b91505092915050565b60008060408385031215612d9f57600080fd5b6000612dad85828601612bdd565b9250506020612dbe85828601612bdd565b9150509250929050565b6000612dd4838361353b565b60e08301905092915050565b6000612dec8383613657565b60808301905092915050565b612e0181613f42565b82525050565b612e1081613f42565b82525050565b6000612e2182613c4e565b612e2b8185613c89565b9350612e3683613c2e565b8060005b83811015612e67578151612e4e8882612dc8565b9750612e5983613c6f565b925050600181019050612e3a565b5085935050505092915050565b6000612e7f82613c59565b612e898185613c9a565b9350612e9483613c3e565b8060005b83811015612ec5578151612eac8882612de0565b9750612eb783613c7c565b925050600181019050612e98565b5085935050505092915050565b612edb81613f54565b82525050565b612eea81613f54565b82525050565b612ef981613f97565b82525050565b6000612f0b8385613cab565b9350612f18838584613fa9565b612f218361411d565b840190509392505050565b6000612f3782613c64565b612f418185613cab565b9350612f51818560208601613fb8565b612f5a8161411d565b840191505092915050565b6000612f72602383613cab565b91507f45524332303a207472616e7366657220746f20746865207a65726f206164647260008301527f65737300000000000000000000000000000000000000000000000000000000006020830152604082019050919050565b6000612fd8600e83613cab565b91507f5265717565737420546f6b656e730000000000000000000000000000000000006000830152602082019050919050565b6000613018602683613cab565b91507f4f776e61626c653a206e6577206f776e657220697320746865207a65726f206160008301527f64647265737300000000000000000000000000000000000000000000000000006020830152604082019050919050565b600061307e602283613cab565b91507f45524332303a20617070726f766520746f20746865207a65726f20616464726560008301527f73730000000000000000000000000000000000000000000000000000000000006020830152604082019050919050565b60006130e4600f83613cab565b91507f556e6b6e6f776e206164647265737300000000000000000000000000000000006000830152602082019050919050565b6000613124600883613cab565b91507f417070726f7665640000000000000000000000000000000000000000000000006000830152602082019050919050565b6000613164601d83613cab565b91507f45524332303a20696e73756666696369656e7420616c6c6f77616e63650000006000830152602082019050919050565b60006131a4602683613cab565b91507f45524332303a207472616e7366657220616d6f756e742065786365656473206260008301527f616c616e636500000000000000000000000000000000000000000000000000006020830152604082019050919050565b600061320a600a83613cab565b91507f556e617070726f766564000000000000000000000000000000000000000000006000830152602082019050919050565b600061324a601283613cab565b91507f416464656420746f2077686974656c69737400000000000000000000000000006000830152602082019050919050565b600061328a601683613cab565b91507f52656d6f7665642066726f6d2077686974656c697374000000000000000000006000830152602082019050919050565b60006132ca602083613cab565b91507f4f776e61626c653a2063616c6c6572206973206e6f7420746865206f776e65726000830152602082019050919050565b600061330a602c83613cab565b91507f54686973206164647265737320646f65736e2774206861766520616e7920706560008301527f6e64696e6720746f6b656e7300000000000000000000000000000000000000006020830152604082019050919050565b6000613370601b83613cab565b91507f54686973206164647265737320616c72656164792065786973747300000000006000830152602082019050919050565b60006133b0602c83613cab565b91507f74686973206164647265737320646f65736e2774206861766520616e7920706560008301527f6e64696e6720746f6b656e7300000000000000000000000000000000000000006020830152604082019050919050565b6000613416602583613cab565b91507f45524332303a207472616e736665722066726f6d20746865207a65726f20616460008301527f64726573730000000000000000000000000000000000000000000000000000006020830152604082019050919050565b600061347c602483613cab565b91507f45524332303a20617070726f76652066726f6d20746865207a65726f2061646460008301527f72657373000000000000000000000000000000000000000000000000000000006020830152604082019050919050565b60006134e2602583613cab565b91507f45524332303a2064656372656173656420616c6c6f77616e63652062656c6f7760008301527f207a65726f0000000000000000000000000000000000000000000000000000006020830152604082019050919050565b60e08201600082015161355160008501826136ac565b50602082015161356460208501826136ac565b50604082015161357760408501826136ac565b50606082015161358a60608501826136ac565b50608082015161359d60808501826136ac565b5060a08201516135b060a08501826136ac565b5060c08201516135c360c0850182612ed2565b50505050565b60e0820160008201516135df60008501826136ac565b5060208201516135f260208501826136ac565b50604082015161360560408501826136ac565b50606082015161361860608501826136ac565b50608082015161362b60808501826136ac565b5060a082015161363e60a08501826136ac565b5060c082015161365160c0850182612ed2565b50505050565b60808201600082015161366d6000850182612df8565b50602082015161368060208501826136ac565b50604082015161369360408501826136ac565b5060608201516136a660608501826136ac565b50505050565b6136b581613f80565b82525050565b6136c481613f80565b82525050565b6136d381613f8a565b82525050565b60006020820190506136ee6000830184612e07565b92915050565b600060c0820190506137096000830188612e07565b6137166020830187612ef0565b6137236040830186612ef0565b61373060608301856136bb565b61373d60808301846136bb565b81810360a083015261374e8161323d565b90509695505050505050565b600060c08201905061376f6000830188612e07565b61377c6020830187612ef0565b6137896040830186612ef0565b61379660608301856136bb565b6137a360808301846136bb565b81810360a08301526137b48161327d565b90509695505050505050565b60006040820190506137d56000830186612e07565b81810360208301526137e8818486612eff565b9050949350505050565b60006040820190506138076000830185612e07565b61381460208301846136bb565b9392505050565b600060c0820190506138306000830188612e07565b61383d60208301876136bb565b61384a60408301866136bb565b61385760608301856136bb565b61386460808301846136bb565b81810360a083015261387581612fcb565b90509695505050505050565b600060c0820190506138966000830188612e07565b6138a360208301876136bb565b6138b060408301866136bb565b6138bd60608301856136bb565b6138ca60808301846136bb565b81810360a08301526138db81613117565b90509695505050505050565b600060c0820190506138fc6000830188612e07565b61390960208301876136bb565b61391660408301866136bb565b61392360608301856136bb565b61393060808301846136bb565b81810360a0830152613941816131fd565b90509695505050505050565b600060208201905081810360008301526139678184612e16565b905092915050565b600060208201905081810360008301526139898184612e74565b905092915050565b60006020820190506139a66000830184612ee1565b92915050565b600060208201905081810360008301526139c68184612f2c565b905092915050565b600060208201905081810360008301526139e781612f65565b9050919050565b60006020820190508181036000830152613a078161300b565b9050919050565b60006020820190508181036000830152613a2781613071565b9050919050565b60006020820190508181036000830152613a47816130d7565b9050919050565b60006020820190508181036000830152613a6781613157565b9050919050565b60006020820190508181036000830152613a8781613197565b9050919050565b60006020820190508181036000830152613aa7816132bd565b9050919050565b60006020820190508181036000830152613ac7816132fd565b9050919050565b60006020820190508181036000830152613ae781613363565b9050919050565b60006020820190508181036000830152613b07816133a3565b9050919050565b60006020820190508181036000830152613b2781613409565b9050919050565b60006020820190508181036000830152613b478161346f565b9050919050565b60006020820190508181036000830152613b67816134d5565b9050919050565b600060e082019050613b8360008301846135c9565b92915050565b6000602082019050613b9e60008301846136bb565b92915050565b600060e082019050613bb9600083018a6136bb565b613bc660208301896136bb565b613bd360408301886136bb565b613be060608301876136bb565b613bed60808301866136bb565b613bfa60a08301856136bb565b613c0760c0830184612ee1565b98975050505050505050565b6000602082019050613c2860008301846136ca565b92915050565b6000819050602082019050919050565b6000819050602082019050919050565b600081519050919050565b600081519050919050565b600081519050919050565b6000602082019050919050565b6000602082019050919050565b600082825260208201905092915050565b600082825260208201905092915050565b600082825260208201905092915050565b6000613cc782613f80565b9150613cd283613f80565b9250827fffffffffffffffffffffffffffffffffffffffffffffffffffffffffffffffff03821115613d0757613d06614090565b5b828201905092915050565b6000613d1d82613f80565b9150613d2883613f80565b925082613d3857613d376140bf565b5b828204905092915050565b6000808291508390505b6001851115613d8d57808604811115613d6957613d68614090565b5b6001851615613d785780820291505b8081029050613d868561412e565b9450613d4d565b94509492505050565b6000613da182613f80565b9150613dac83613f80565b9250613dd97fffffffffffffffffffffffffffffffffffffffffffffffffffffffffffffffff8484613de1565b905092915050565b600082613df15760019050613ead565b81613dff5760009050613ead565b8160018114613e155760028114613e1f57613e4e565b6001915050613ead565b60ff841115613e3157613e30614090565b5b8360020a915084821115613e4857613e47614090565b5b50613ead565b5060208310610133831016604e8410600b8410161715613e835782820a905083811115613e7e57613e7d614090565b5b613ead565b613e908484846001613d43565b92509050818404811115613ea757613ea6614090565b5b81810290505b9392505050565b6000613ebf82613f80565b9150613eca83613f80565b9250817fffffffffffffffffffffffffffffffffffffffffffffffffffffffffffffffff0483118215151615613f0357613f02614090565b5b828202905092915050565b6000613f1982613f80565b9150613f2483613f80565b925082821015613f3757613f36614090565b5b828203905092915050565b6000613f4d82613f60565b9050919050565b60008115159050919050565b600073ffffffffffffffffffffffffffffffffffffffff82169050919050565b6000819050919050565b600060ff82169050919050565b6000613fa282613f80565b9050919050565b82818337600083830152505050565b60005b83811015613fd6578082015181840152602081019050613fbb565b83811115613fe5576000848401525b50505050565b6000613ff682613f80565b9150600082141561400a57614009614090565b5b600182039050919050565b6000600282049050600182168061402d57607f821691505b60208210811415614041576140406140ee565b5b50919050565b600061405282613f80565b91507fffffffffffffffffffffffffffffffffffffffffffffffffffffffffffffffff82141561408557614084614090565b5b600182019050919050565b7f4e487b7100000000000000000000000000000000000000000000000000000000600052601160045260246000fd5b7f4e487b7100000000000000000000000000000000000000000000000000000000600052601260045260246000fd5b7f4e487b7100000000000000000000000000000000000000000000000000000000600052602260045260246000fd5b6000601f19601f8301169050919050565b60008160011c9050919050565b61414481613f42565b811461414f57600080fd5b50565b61415b81613f54565b811461416657600080fd5b50565b61417281613f80565b811461417d57600080fd5b5056fea26469706673582212206a61e8fc3d8db5528bf5c859d4a9613d48fce030871789bb042690914221385564736f6c63430008000033",
  "immutableReferences": {},
  "source": "// SPDX-License-Identifier: MIT\r\npragma solidity 0.8.0;\r\n\r\nimport {ERC20} from \"@openzeppelin/contracts/token/ERC20/ERC20.sol\";\r\nimport {Ownable} from \"@openzeppelin/contracts/access/Ownable.sol\";\r\nimport {DemoPresale} from \"./DemoPresale.sol\";\r\n\r\ncontract DemoPresaleToken is ERC20, Ownable {\r\n\r\n    DemoPresale presale;\r\n\r\n    uint public id;\r\n    uint public pendingCount;\r\n    uint _decimals = 10**decimals();\r\n    uint public price;\r\n    uint public totalPurchased;\r\n    uint public hardcap;\r\n    bool public activePeriod;\r\n\r\n    mapping(address => uint) public contributors;\r\n    mapping(address => uint) public funds;\r\n    mapping(uint => Period) public periods;\r\n    mapping(address => mapping(uint => bool)) public userDetails; // userDetails[_who][purchasedAmount] = true (if has reached limit)\r\n\r\n    Purchased[] purchasedTokens;\r\n\r\n    struct Period {\r\n        uint startTime;\r\n        uint endTime;\r\n        uint price;\r\n        uint amount;\r\n        uint remaining;\r\n        uint hardcap;\r\n        bool active;\r\n    }\r\n\r\n    struct Purchased {\r\n        address who;\r\n        uint amount;\r\n        uint price;\r\n        uint time;\r\n    }\r\n\r\n    constructor(string memory _name, string memory _symbol, address _presale) ERC20(_name, _symbol) {\r\n        presale = DemoPresale(_presale);\r\n        _mint(address(this), 10e13 * _decimals); // 100 Trillion\r\n        address marketing = 0x1337133713371337133713371337133713371337;\r\n        address staking = 0x1337133713371337133713371337133713371337;\r\n        address team = 0x1337133713371337133713371337133713371337;\r\n        address airdrop = 0x1337133713371337133713371337133713371337;\r\n        _transfer(address(this), marketing, 13e12 * _decimals); // 13 trillion\r\n        _transfer(address(this), staking, 5e12 * _decimals); // 5 trillion\r\n        _transfer(address(this), team, 18e12 * _decimals); // 18 trillion\r\n        _transfer(address(this), airdrop, 24e12 * _decimals); // 24 trillion\r\n        // this address holds all other tokens (40 Trillion)\r\n    }\r\n\r\n    function requestToken(uint _amount, uint _num) payable public {\r\n        _amount = _amount * _decimals / 10 ** _num;\r\n        totalPurchased += _amount;\r\n        contributors[msg.sender] += _amount;\r\n        funds[msg.sender] += msg.value;\r\n        periods[id].remaining = periods[id].remaining - _amount;\r\n        updatePending(msg.sender, _amount);\r\n        presale.addActivity(msg.sender, _amount, price, block.timestamp, id, \"Request Tokens\");\r\n        pendingCount++;\r\n    }\r\n\r\n    function approveToken(address _who) public onlyOwner returns (bool){\r\n        require(contributors[_who] > 0, \"this address doesn't have any pending tokens\");\r\n        _transfer(address(this), _who, contributors[_who]);\r\n\r\n        payable(owner()).transfer(funds[_who]);\r\n        deletePending(_who);\r\n\r\n        purchasedTokens.push(Purchased(_who, contributors[_who], price, block.timestamp));\r\n        presale.addActivity(_who, contributors[_who], price, block.timestamp, id, \"Approved\");\r\n        contributors[_who] = funds[_who] = 0;\r\n        pendingCount--;\r\n        return true;\r\n    }\r\n\r\n    function unapproveToken(address _who) public returns(bool) {\r\n        require(contributors[_who] > 0, \"This address doesn't have any pending tokens\");\r\n        payable(_who).transfer(funds[_who]);\r\n        periods[id].remaining = periods[id].remaining + contributors[_who];\r\n        totalPurchased -= contributors[_who];\r\n        deletePending(_who);\r\n        presale.addActivity(_who, contributors[_who], price, block.timestamp, id, \"Unapproved\");\r\n        contributors[_who] = funds[_who] = 0;\r\n        pendingCount--;\r\n        return true;\r\n    }\r\n\r\n    function getPurchasedtokens(address _who) public view returns(Purchased[] memory) {\r\n        uint len = purchasedTokens.length;\r\n        Purchased[] memory purchased_ = new Purchased[](len);\r\n        for(uint x=0;x<len;x++){\r\n            if(purchasedTokens[x].who == _who){\r\n                purchased_[x] = purchasedTokens[x];\r\n            }\r\n        }\r\n        return purchased_;\r\n    }\r\n\r\n    function getMinTokens() public view returns (uint) {\r\n        if(_decimals > price) return _decimals / price;\r\n        return 1;\r\n    }\r\n\r\n    function getPeriods() public view returns(Period[] memory){\r\n        Period[] memory periods_ = new Period[](id);\r\n        for(uint x=0;x<id;x++){\r\n            periods_[x] = periods[x+1];\r\n        }\r\n        return periods_;\r\n    }\r\n\r\n    function getActivePeriod() public view returns(Period memory){\r\n        Period memory period_ = periods[id];\r\n        return period_;\r\n    }\r\n\r\n    function deactivatePeriod() public onlyOwner returns(bool){\r\n        if(pendingCount > 0) return false;\r\n        periods[id].active = false;\r\n        activePeriod = false;\r\n        return true;\r\n    }\r\n\r\n    function addUser(address _who, string calldata _name) public returns(bool){\r\n        presale.addUser(_who, _name);\r\n        return true;\r\n    }\r\n\r\n    function addToWhitelist(address _who) public onlyOwner returns(bool){\r\n        require(!presale.checkWhitelist(_who), \"This address already exists\");\r\n        require(_who != address(0), \"Unknown address\");\r\n        presale.addToWhitelist(_who);\r\n        presale.addActivity(_who, 0, 0, block.timestamp, id, \"Added to whitelist\");\r\n        return true;\r\n    }\r\n\r\n    function removeFromWhitelist(address _who) public returns(bool){\r\n        if(presale.removeFromWhitelist(_who)) {\r\n            presale.addActivity(_who, 0, 0, block.timestamp, id, \"Removed from whitelist\");\r\n            return true;\r\n        }\r\n        return false;\r\n    }\r\n\r\n    function deletePending(address _who) internal returns(bool){\r\n        return presale.deletePending(_who);\r\n    }\r\n\r\n    function updatePending(address _who, uint _amount) internal returns(bool){\r\n        return presale.updatePending(_who, _amount);\r\n    }\r\n\r\n    function prevalidateMint(uint _start, uint _end, uint _amount, uint _hardcap) internal view{\r\n        require(_start < _end && _end > block.timestamp, \"start and end time error\");\r\n        require(_amount <= totalSupply() && _amount > 0, \"The amount of tokens must be greater than 0 and less than total supply\");\r\n        require(_amount < (totalSupply() - totalPurchased), \"No more available tokens for this amount\");\r\n        require(pendingCount == 0, \"There are token requests pending\");\r\n        require(_hardcap >= hardcap, \"Hardcap figure must be equal to or more than the previous round\");\r\n    }\r\n\r\n    function initialMint(uint _start, uint _end, uint _amount, uint _price, uint _hardcap) internal returns(bool){\r\n        if(id >0) periods[id].active = false;\r\n        price = _price;\r\n        hardcap = _hardcap;\r\n        id++;\r\n        periods[id] = Period(_start, _end, _price, _amount, _amount, _hardcap, true);\r\n        return activePeriod = true;\r\n    }\r\n\r\n    function value(uint _amount) internal view returns (uint){\r\n        if(_decimals > price) {\r\n            return _amount / (_decimals / price);\r\n        }\r\n        return price / _decimals * _amount;\r\n    }\r\n\r\n    fallback () external payable {}\r\n    receive () external payable {}\r\n}",
  "sourcePath": "C:\\Users\\kiera\\Desktop\\Keyrxng\\token-presale\\dlt\\contracts\\DemoPresaleToken.sol",
  "compiler": {
    "name": "solc",
    "version": "0.8.0+commit.c7dfd78e.Emscripten.clang"
  },
  "schemaVersion": "3.4.3",
  "updatedAt": "2022-05-28T12:00:00.758Z",
  "devdoc": {
    "kind": "dev",
    "methods": {
      "allowance(address,address)": {
        "details": "See {IERC20-allowance}."
      },
      "approve(address,uint256)": {
        "details": "See {IERC20-approve}. NOTE: If `amount` is the maximum `uint256`, the allowance is not updated on `transferFrom`. This is semantically equivalent to an infinite approval. Requirements: - `spender` cannot be the zero address."
      },
      "balanceOf(address)": {
        "details": "See {IERC20-balanceOf}."
      },
      "decimals()": {
        "details": "Returns the number of decimals used to get its user representation. For example, if `decimals` equals `2`, a balance of `505` tokens should be displayed to a user as `5.05` (`505 / 10 ** 2`). Tokens usually opt for a value of 18, imitating the relationship between Ether and Wei. This is the value {ERC20} uses, unless this function is overridden; NOTE: This information is only used for _display_ purposes: it in no way affects any of the arithmetic of the contract, including {IERC20-balanceOf} and {IERC20-transfer}."
      },
      "decreaseAllowance(address,uint256)": {
        "details": "Atomically decreases the allowance granted to `spender` by the caller. This is an alternative to {approve} that can be used as a mitigation for problems described in {IERC20-approve}. Emits an {Approval} event indicating the updated allowance. Requirements: - `spender` cannot be the zero address. - `spender` must have allowance for the caller of at least `subtractedValue`."
      },
      "increaseAllowance(address,uint256)": {
        "details": "Atomically increases the allowance granted to `spender` by the caller. This is an alternative to {approve} that can be used as a mitigation for problems described in {IERC20-approve}. Emits an {Approval} event indicating the updated allowance. Requirements: - `spender` cannot be the zero address."
      },
      "name()": {
        "details": "Returns the name of the token."
      },
      "owner()": {
        "details": "Returns the address of the current owner."
      },
      "renounceOwnership()": {
        "details": "Leaves the contract without owner. It will not be possible to call `onlyOwner` functions anymore. Can only be called by the current owner. NOTE: Renouncing ownership will leave the contract without an owner, thereby removing any functionality that is only available to the owner."
      },
      "symbol()": {
        "details": "Returns the symbol of the token, usually a shorter version of the name."
      },
      "totalSupply()": {
        "details": "See {IERC20-totalSupply}."
      },
      "transfer(address,uint256)": {
        "details": "See {IERC20-transfer}. Requirements: - `to` cannot be the zero address. - the caller must have a balance of at least `amount`."
      },
      "transferFrom(address,address,uint256)": {
        "details": "See {IERC20-transferFrom}. Emits an {Approval} event indicating the updated allowance. This is not required by the EIP. See the note at the beginning of {ERC20}. NOTE: Does not update the allowance if the current allowance is the maximum `uint256`. Requirements: - `from` and `to` cannot be the zero address. - `from` must have a balance of at least `amount`. - the caller must have allowance for ``from``'s tokens of at least `amount`."
      },
      "transferOwnership(address)": {
        "details": "Transfers ownership of the contract to a new account (`newOwner`). Can only be called by the current owner."
      }
    },
    "version": 1
  },
  "userdoc": {
    "kind": "user",
    "methods": {},
    "version": 1
  }
}